:020000040000FA
:10000000F0020020F90200000103000003030000D9
:1000100005030000070300000903000000000000C2
:100020000000000000000000000000005107000078
:100030000D03000000000000E1060000750700004D
:10004000130300001503000017030000190300004C
:100050001B030000510800001F03000021030000E3
:1000600023030000250300002703000029030000EC
:100070002B0300002D0300002F03000031030000BC
:100080003303000035030000370300002D08000093
:100090003B0300003D0300003F030000410300005C
:1000A000430300004503000047030000490300002C
:1000B0004B0300004D0300004F03000051030000FC
:1000C00053030000550300005703000059030000CC
:1000D0005B0300005D0300005F030000610300009C
:1000E00063030000650300000000000067030000D8
:1000F000690300006B0300006D0300006F03000044
:100100007103000073030000750300007703000013
:100110000000000000000000790300007B030000E5
:100120007D0300007F0300008103000083030000C3
:100130008503000087030000890300008B03000093
:1001400000000000000000000000000000000000AF
:100150008D0300008F030000910300009303000053
:10016000000000000000000000000000000000008F
:10017000000000000000000000000000000000007F
:10018000000000000000000000000000000000006F
:10019000000000000000000000000000000000005F
:1001A000000000000000000000000000000000004F
:1001B0009503000097030000990300009B030000D3
:1001C0009D0300009F030000A1030000A3030000A3
:1001D000A5030000A7030000A9030000AB03000073
:1001E000AD030000AF030000B103000000000000F9
:1001F00000000000B3030000B5030000B7030000D7
:10020000B9030000BB030000000000000000000074
:10021000BD030000BF030000C1030000C3030000D2
:10022000C5030000C7030000C9030000CB030000A2
:10023000CD030000CF030000D1030000D303000072
:10024000D5030000D7030000D9030000DB03000042
:10025000DD030000DF030000E1030000E303000012
:10026000E5030000E7030000E903000000F002F8E6
:1002700000F02EF80AA090E8000C82448344AAF112
:100280000107DA4501D100F023F8AFF2090EBAE810
:100290000F0013F0010F18BFFB1A43F001031847BA
:1002A000040A0000140A0000002300240025002690
:1002B000103A28BF78C1FBD8520728BF30C148BFC9
:1002C0000B6070471FB500F0DFFC1FBD10B510BDFF
:1002D00000F09FF81146FFF7F5FF00F0D3FA00F0A9
:1002E000BDF803B4FFF7F2FF03BC00F0C5F800004F
:1002F0000138FDD1704700003F4880473F48004724
:10030000FEE7FEE7FEE7FEE7FEE7FEE7FEE7FEE7C5
:10031000FEE7FEE7FEE7FEE7FEE7FEE7FEE7FEE7B5
:10032000FEE7FEE7FEE7FEE7FEE7FEE7FEE7FEE7A5
:10033000FEE7FEE7FEE7FEE7FEE7FEE7FEE7FEE795
:10034000FEE7FEE7FEE7FEE7FEE7FEE7FEE7FEE785
:10035000FEE7FEE7FEE7FEE7FEE7FEE7FEE7FEE775
:10036000FEE7FEE7FEE7FEE7FEE7FEE7FEE7FEE765
:10037000FEE7FEE7FEE7FEE7FEE7FEE7FEE7FEE755
:10038000FEE7FEE7FEE7FEE7FEE7FEE7FEE7FEE745
:10039000FEE7FEE7FEE7FEE7FEE7FEE7FEE7FEE735
:1003A000FEE7FEE7FEE7FEE7FEE7FEE7FEE7FEE725
:1003B000FEE7FEE7FEE7FEE7FEE7FEE7FEE7FEE715
:1003C000FEE7FEE7FEE7FEE7FEE7FEE7FEE7FEE705
:1003D000FEE7FEE7FEE7FEE7FEE7FEE7FEE7FEE7F5
:1003E000FEE7FEE7FEE7FEE7FEE7000004480549FA
:1003F000034A054B70470000A50700006D0200008E
:10040000F0000020F0020020F0000020704770474C
:100410007047754600F02CF8AE4605006946534615
:1004200020F00700854618B020B5FFF7DFFFBDE8D4
:1004300020404FF000064FF000074FF000084FF04B
:10044000000BAC46ACE8C009ACE8C009ACE8C00998
:10045000ACE8C00921F007018D46704710B504468D
:10046000AFF300802046BDE81040FFF73ABF000020
:10047000004870470000002001491820ABBEFEE78D
:100480002600020070470000F0B54EF2000EC4F2E4
:100490000F0E40F2000CDEF80050C7F2FF0C0024F3
:1004A000C1F2050405EA0C05A54224D0CD07C2F32C
:1004B000411540F0A6808E0700F1B1804E0700F193
:1004C000BD800E0700F1C980CE0600F1D5808E06F2
:1004D00000F1E1804E0600F1ED800E060BD5D0F85C
:1004E000C46F26F44046C0F8C46FD0F8C46F46EA23
:1004F0008535C0F8C45FD0F80055D70745EA010636
:1005000008BF25EA0106C0F80065D0F80455970732
:1005100045EA010658BF25EA0106C0F80465D0F88F
:100520000855570745EA010658BF25EA0106C0F8F5
:100530000865D0F81855170745EA010658BF25EA9F
:100540000106C0F81865DEF8005005EA0C05A54262
:1005500009D0D0F83C55D20645EA010658BF25EA35
:100560000106C0F83C65D0F80C25DE0742EA01051B
:1005700008BF22EA0105C0F80C55D0F810259E07E7
:1005800042EA010558BF22EA0105C0F81055D0F82B
:1005900014255E0742EA010558BF22EA0105C0F8AA
:1005A0001455D0F81C251E0742EA010558BF22EA5F
:1005B0000105C0F81C55DEF8002002EA0C02A24238
:1005C00014D0D0F844259E0542EA010758BF22EA1C
:1005D0000107C0F84475D0F8402513F4407F42EA83
:1005E000010708BF22EA0107C0F84075D0F82825A6
:1005F000002B22EA010708BF42EA0107C0F828756C
:10060000F0BDD0F8C46F26F00306C0F8C46FD0F870
:10061000C46F2E43C0F8C46F8E077FF54FAFD0F87C
:10062000C46F26F00C06C0F8C46FD0F8C46F46EA59
:100630008506C0F8C46F4E077FF543AFD0F8C46F8E
:1006400026F03006C0F8C46FD0F8C46F46EA05162D
:10065000C0F8C46F0E077FF537AFD0F8C46F26F02F
:10066000C006C0F8C46FD0F8C46F46EA8516C0F85B
:10067000C46FCE067FF52BAFD0F8C46F26F440765A
:10068000C0F8C46FD0F8C46F46EA0526C0F8C46F3E
:100690008E067FF51FAFD0F8C46F26F44066C0F811
:1006A000C46FD0F8C46F46EA8526C0F8C46F4E0602
:1006B0007FF513AFD0F8C46F26F44056C0F8C46F6E
:1006C000D0F8C46F46EA0536C0F8C46F0E063FF591
:1006D00006AF10E70000000000000000000000006E
:1006E000EFF30980BFF36F8F154B1A681EF0100FE0
:1006F00008BF20ED108A20E9F04F10602DE90900B5
:100700004FF0A00080F31188BFF34F8FBFF36F8FBE
:1007100000F006F94FF0000080F31188BDE80900F1
:1007200019680868B0E8F04F1EF0100F08BFB0EC71
:10073000108A80F30988BFF36F8F704700BF00BF36
:100740006000002000000000000000000000000029
:10075000074B19680868B0E8F04F80F30988BFF3C9
:100760006F8F4FF0000080F31188704700BF00BF0B
:100770006000002080B54FF0A00080F31188BFF327
:100780006F8FBFF34F8F00F00DF930B14EF604506C
:10079000CEF200004FF080510160002080F31188FC
:1007A00080BD00004EF68852CEF2000213684EF271
:1007B000600043F47003136042F61002C4F20F00AD
:1007C000C0F28072026143F6D122C0F28E720260E2
:1007D00040F64252C0F29E1202F50053036040F60A
:1007E000000340F2425CC0F28013C0F2DE1C03F54D
:1007F000005101610CF5006102600361016050F875
:10080000101C49060CD450F8101C49065CBF50F867
:10081000101C5FEA416103D450F8101C4906EED564
:100820004FF0C071C0F800C00161704780B5002072
:10083000C4F20300012100F019FA45F22000C4F2CD
:10084000020001680622002908BF0822826180BDDB
:1008500010B54CF20004C4F200042046012100F05F
:100860000EFA0146204600F008FA204600F000FA91
:10087000002808BF10BD00BF204600F0F9F900288D
:10088000FAD110BD40F2405045F20004C0F24020C1
:10089000C4F2020400F046F9204600F0D3F92046E5
:1008A0000A2101220823FFF7EFFDD4F80004FF25F9
:1008B00040F00A00C4F80004D4F82004002620F018
:1008C0000A00C4F8200400BF41F28830A562FFF797
:1008D0000FFD41F288302662FFF70AFDF4E70000C1
:1008E000D0E9013201699A60D1F804C08268844578
:1008F000536008BF4A60002202610868013808603E
:1009000008687047D0F800C0436808619A684B6077
:100910008A609A68996051600CF10101016070472A
:1009200040F2D000C2F20000006830B140F2E800AE
:10093000C2F2000001210160704740F2E800C2F2FB
:1009400000000021016040F2D400C2F20000006803
:10095000B0FA80F0C0B2C0F11F0040F26C0100EBB1
:100960008000C2F2000151F820208AB101EB800121
:1009700051F8040F40680A1D9042086001D1406898
:100980000860C06840F26001C2F200010860704770
:100990004FF0A00080F31188BFF36F8FBFF34F8F2C
:1009A000FEE700002DE9F04F81B040F2D000C2F226
:1009B0000000006840B140F2E000C2F200000168AF
:1009C000002401310160A9E040F2E400C2F200001D
:1009D00001684E1C06602ED340F26400C2F2000093
:1009E0000168096849B14FF0A00080F31188BFF396
:1009F0006F8FBFF34F8F00BFFEE740F26802C2F275
:100A00000002016813680360116040F2DC01C2F269
:100A100000010A6801320A600168096821B10068B2
:100A2000C068C068406801E04FF0FF3040F2D80174
:100A3000C2F20001086040F2D801C2F20001086869
:100A400040F2600A8642C2F2000A01D200244FE05E
:100A500040F2640BC2F2000BDBF8000000240068D7
:100A6000E0B340F2D4090127C2F2000920E000BF40
:100A7000D8F82C00D9F8001007FA00F21143C9F891
:100A8000001040F26C0100EB8000C2F2000101EBAB
:100A900080002946FFF736FFD8F82C00DAF800105E
:100AA000C96ADBF800208842106828BF3C46C0B104
:100AB000DBF80000C068D0F80C80454655F8040FFC
:100AC000864210D32846FFF70BFFD8F828000028ED
:100AD000CED008F11800FFF703FFC9E74FF0FF3051
:100AE00005E04FF0FF3040F2D801C2F2000108608B
:100AF000DAF8000040F26C01C06AC2F2000100EBBB
:100B0000800051F82000012840F2E800C2F2000005
:100B100088BF01240068002818BF0124204601B0C6
:100B2000BDE8F08F434B30B4196E1A6F21F4800189
:100B300041F4006142F4006419661C6721EA000276
:100B400012F0010F14D060F0010211409A159A655D
:100B50001966D3F850C0D2021CF4807F08D1521E0F
:100B600004BF30BC7047D3F850C01CF4807FF6D06F
:100B700021F4FE6100F4FE621143DFF8BCC024F0F2
:100B8000700222F0004200EA0C0C4CEA020200F073
:100B9000080C42EACC0219661A6700F4005C21F4E2
:100BA000005122F400524CEA01014CEA02024FF0DB
:100BB000400CC3F858C012F0004F08BF19661A67FE
:100BC00018BF196621F00101DFF870C021F0F8614B
:100BD00000EA0C0C4CEA010122F0FC5200F0FC5C33
:100BE0004CEA020210F0804F08BF22F0804209D088
:100BF000DFF84CC022F4800200EA0C0C41F48001C2
:100C00004CEA020210F4006F08BF4FF400400AD112
:100C1000D3F868C11CF0010F01D1401EF8D121F4B6
:100C2000006122F4006219661A6730BC1020FFF7D9
:100C30005FBB000000E00F40300000800100C007F3
:100C400000004040C0F307230749C0B2194401F037
:100C50007043C1F3130143EA411141EA800040F0BF
:100C6000007001220260704700E60F404162704749
:100C70008069012121EA1010704741647047002902
:100C800014BF006CC06B7047F1EE100A4FF6FF7195
:100C9000C0F2C03120EA010040F04070E1EE100ADD
:100CA00070470000B40C000000000020F0020000BB
:040CB000A802000096
:04000005000002F9FC
:00000001FF
